{
    "address": "0x906a57aCa067178e76e6eBDF4C7b26CBcAEC0Edd",
    "abi": [
        {
            "anonymous": false,
            "inputs": [
                {
                    "indexed": true,
                    "internalType": "address",
                    "name": "user",
                    "type": "address"
                },
                {
                    "indexed": false,
                    "internalType": "uint256",
                    "name": "amount",
                    "type": "uint256"
                }
            ],
            "name": "BalanceToppedUp",
            "type": "event"
        },
        {
            "anonymous": false,
            "inputs": [
                {
                    "indexed": true,
                    "internalType": "uint256",
                    "name": "roundId",
                    "type": "uint256"
                },
                {
                    "indexed": true,
                    "internalType": "uint256",
                    "name": "projectId",
                    "type": "uint256"
                },
                {
                    "indexed": true,
                    "internalType": "address",
                    "name": "donor",
                    "type": "address"
                },
                {
                    "indexed": false,
                    "internalType": "euint64",
                    "name": "amount",
                    "type": "uint256"
                }
            ],
            "name": "DonationMade",
            "type": "event"
        },
        {
            "anonymous": false,
            "inputs": [
                {
                    "indexed": true,
                    "internalType": "uint256",
                    "name": "roundId",
                    "type": "uint256"
                }
            ],
            "name": "FundsDistributed",
            "type": "event"
        },
        {
            "anonymous": false,
            "inputs": [
                {
                    "indexed": true,
                    "internalType": "uint256",
                    "name": "roundId",
                    "type": "uint256"
                },
                {
                    "indexed": true,
                    "internalType": "uint256",
                    "name": "projectId",
                    "type": "uint256"
                },
                {
                    "indexed": true,
                    "internalType": "address",
                    "name": "projectOwner",
                    "type": "address"
                }
            ],
            "name": "ProjectApplied",
            "type": "event"
        },
        {
            "anonymous": false,
            "inputs": [
                {
                    "indexed": true,
                    "internalType": "uint256",
                    "name": "roundId",
                    "type": "uint256"
                }
            ],
            "name": "RoundCancelled",
            "type": "event"
        },
        {
            "anonymous": false,
            "inputs": [
                {
                    "indexed": true,
                    "internalType": "uint256",
                    "name": "roundId",
                    "type": "uint256"
                },
                {
                    "indexed": true,
                    "internalType": "address",
                    "name": "profileOwner",
                    "type": "address"
                },
                {
                    "indexed": false,
                    "internalType": "uint256",
                    "name": "matchingAmount",
                    "type": "uint256"
                }
            ],
            "name": "RoundCreated",
            "type": "event"
        },
        {
            "inputs": [
                {
                    "internalType": "uint256",
                    "name": "roundId",
                    "type": "uint256"
                },
                {
                    "internalType": "string",
                    "name": "metadata",
                    "type": "string"
                }
            ],
            "name": "applyForRound",
            "outputs": [],
            "stateMutability": "nonpayable",
            "type": "function"
        },
        {
            "inputs": [
                {
                    "internalType": "address",
                    "name": "",
                    "type": "address"
                }
            ],
            "name": "balances",
            "outputs": [
                {
                    "internalType": "uint256",
                    "name": "",
                    "type": "uint256"
                }
            ],
            "stateMutability": "view",
            "type": "function"
        },
        {
            "inputs": [
                {
                    "internalType": "uint256",
                    "name": "roundId",
                    "type": "uint256"
                }
            ],
            "name": "cancelRound",
            "outputs": [],
            "stateMutability": "nonpayable",
            "type": "function"
        },
        {
            "inputs": [
                {
                    "internalType": "uint256",
                    "name": "ma",
                    "type": "uint256"
                },
                {
                    "internalType": "string",
                    "name": "m",
                    "type": "string"
                },
                {
                    "internalType": "uint256",
                    "name": "vp",
                    "type": "uint256"
                }
            ],
            "name": "createRound",
            "outputs": [],
            "stateMutability": "payable",
            "type": "function"
        },
        {
            "inputs": [
                {
                    "internalType": "uint256",
                    "name": "rId",
                    "type": "uint256"
                }
            ],
            "name": "distributeFunds",
            "outputs": [],
            "stateMutability": "nonpayable",
            "type": "function"
        },
        {
            "inputs": [
                {
                    "internalType": "uint256",
                    "name": "roundId",
                    "type": "uint256"
                },
                {
                    "internalType": "uint256",
                    "name": "projectId",
                    "type": "uint256"
                },
                {
                    "components": [
                        {
                            "internalType": "bytes",
                            "name": "data",
                            "type": "bytes"
                        }
                    ],
                    "internalType": "struct inEuint64",
                    "name": "amount",
                    "type": "tuple"
                }
            ],
            "name": "donate",
            "outputs": [],
            "stateMutability": "nonpayable",
            "type": "function"
        },
        {
            "inputs": [
                {
                    "internalType": "uint256",
                    "name": "roundId",
                    "type": "uint256"
                },
                {
                    "internalType": "string",
                    "name": "newMetadata",
                    "type": "string"
                }
            ],
            "name": "editRoundMetadata",
            "outputs": [],
            "stateMutability": "nonpayable",
            "type": "function"
        },
        {
            "inputs": [
                {
                    "internalType": "uint256",
                    "name": "roundId",
                    "type": "uint256"
                }
            ],
            "name": "finalizeRoundPoll",
            "outputs": [],
            "stateMutability": "nonpayable",
            "type": "function"
        },
        {
            "inputs": [
                {
                    "internalType": "uint256",
                    "name": "roundId",
                    "type": "uint256"
                }
            ],
            "name": "getRoundPollWinner",
            "outputs": [
                {
                    "internalType": "uint8",
                    "name": "",
                    "type": "uint8"
                },
                {
                    "internalType": "uint16",
                    "name": "",
                    "type": "uint16"
                }
            ],
            "stateMutability": "view",
            "type": "function"
        },
        {
            "inputs": [
                {
                    "internalType": "uint256",
                    "name": "",
                    "type": "uint256"
                }
            ],
            "name": "rounds",
            "outputs": [
                {
                    "internalType": "uint256",
                    "name": "id",
                    "type": "uint256"
                },
                {
                    "internalType": "address",
                    "name": "profileOwner",
                    "type": "address"
                },
                {
                    "internalType": "string",
                    "name": "metadata",
                    "type": "string"
                },
                {
                    "internalType": "uint256",
                    "name": "matchingAmount",
                    "type": "uint256"
                },
                {
                    "internalType": "bool",
                    "name": "isActive",
                    "type": "bool"
                },
                {
                    "internalType": "uint256",
                    "name": "nextProjectId",
                    "type": "uint256"
                },
                {
                    "internalType": "contract Poll",
                    "name": "poll",
                    "type": "address"
                }
            ],
            "stateMutability": "view",
            "type": "function"
        },
        {
            "inputs": [],
            "name": "topUpBalance",
            "outputs": [],
            "stateMutability": "payable",
            "type": "function"
        }
    ],
    "transactionHash": "0xeef604ad4ad72500c4f5499fef9adf92441a67b609b0005e6cf50eddd02dbade",
    "args": [],
    "numDeployments": 1,
    "solcInputHash": "3b369cf007041d23e51c32016ca9f6d1",
    "bytecode": "0x6080604052348015600f57600080fd5b50615cc18061001f6000396000f3fe60806040526004361061009c5760003560e01c80637efff887116100645780637efff887146101755780638c65c81f1461017f578063a0221f2e146101c2578063d13aae9b14610200578063f726f71514610229578063fe7776f5146102525761009c565b80630e7d2a20146100a157806327e235e3146100bd57806360d1abe4146100fa57806373e15a04146101235780637e07ab091461014c575b600080fd5b6100bb60048036038101906100b69190611566565b61027b565b005b3480156100c957600080fd5b506100e460048036038101906100df9190611638565b610453565b6040516100f19190611674565b60405180910390f35b34801561010657600080fd5b50610121600480360381019061011c919061168f565b61046b565b005b34801561012f57600080fd5b5061014a60048036038101906101459190611892565b610648565b005b34801561015857600080fd5b50610173600480360381019061016e9190611901565b610857565b005b61017d610a79565b005b34801561018b57600080fd5b506101a660048036038101906101a19190611901565b610b66565b6040516101b99796959493929190611a36565b60405180910390f35b3480156101ce57600080fd5b506101e960048036038101906101e49190611901565b610c7d565b6040516101f7929190611ae5565b60405180910390f35b34801561020c57600080fd5b5061022760048036038101906102229190611901565b610d33565b005b34801561023557600080fd5b50610250600480360381019061024b9190611901565b610dd2565b005b34801561025e57600080fd5b506102796004803603810190610274919061168f565b610fb3565b005b600080600081548092919061028f90611b3d565b9190505590506000600160008381526020019081526020016000209050818160000181905550338160010160006101000a81548173ffffffffffffffffffffffffffffffffffffffff021916908373ffffffffffffffffffffffffffffffffffffffff1602179055508581600301819055508484826002019182610314929190611d92565b5060018160040160006101000a81548160ff0219169083151502179055508484600167ffffffffffffffff81111561034f5761034e611705565b5b60405190808252806020026020018201604052801561038257816020015b606081526020019060019003908161036d5790505b5085604051610390906114aa565b61039d9493929190611f9b565b604051809103906000f0801580156103b9573d6000803e3d6000fd5b508160080160006101000a81548173ffffffffffffffffffffffffffffffffffffffff021916908373ffffffffffffffffffffffffffffffffffffffff1602179055503373ffffffffffffffffffffffffffffffffffffffff16827fbc82faa03c047a80a167686652b69eb5982d8a57df6b65885f12bee8e4bce045886040516104439190611674565b60405180910390a3505050505050565b60026020528060005260406000206000915090505481565b6000600160008581526020019081526020016000209050600081600701600081548092919061049990611b3d565b91905055905060008260050160008381526020019081526020016000209050818160000181905550338160010160006101000a81548173ffffffffffffffffffffffffffffffffffffffff021916908373ffffffffffffffffffffffffffffffffffffffff1602179055508484826002019182610517929190611d92565b5060008160030181905550826006018290806001815401808255809150506001900390600052602060002001600090919091909150558260080160009054906101000a900473ffffffffffffffffffffffffffffffffffffffff1673ffffffffffffffffffffffffffffffffffffffff1663edc550dc8360405160200161059e9190612003565b6040516020818303038152906040526040518263ffffffff1660e01b81526004016105c9919061201e565b600060405180830381600087803b1580156105e357600080fd5b505af11580156105f7573d6000803e3d6000fd5b505050503373ffffffffffffffffffffffffffffffffffffffff1682877f3d402e60eb8d9461fad9457ee1e3c1b5b64c4076b7862dd891018fd2d699287760405160405180910390a4505050505050565b6000600160008581526020019081526020016000209050600061066a83610fe4565b9050600061067782610ffa565b67ffffffffffffffff1690506000836005016000878152602001908152602001600020905060008282600301546106ae9190612040565b9050828260050160003373ffffffffffffffffffffffffffffffffffffffff1673ffffffffffffffffffffffffffffffffffffffff16815260200190815260200160002081905550808260030181905550600087905060006107128260ff166110bd565b90508660080160009054906101000a900473ffffffffffffffffffffffffffffffffffffffff1673ffffffffffffffffffffffffffffffffffffffff1663b384abef82886040518363ffffffff1660e01b8152600401610773929190612092565b600060405180830381600087803b15801561078d57600080fd5b505af11580156107a1573d6000803e3d6000fd5b5050505084600260003373ffffffffffffffffffffffffffffffffffffffff1673ffffffffffffffffffffffffffffffffffffffff16815260200190815260200160002060008282546107f491906120bb565b925050819055503373ffffffffffffffffffffffffffffffffffffffff16898b7fb9c87592ed73f7a26fff471ef513f8065a243208d84daa291fb0e770635014e28960405161084391906120ef565b60405180910390a450505050505050505050565b600060016000838152602001908152602001600020905060005b81600601805490508110156109bb57600082600501600084600601848154811061089e5761089d61210a565b5b90600052602060002001548152602001908152602001600020905060005b81600601805490508110156109ac5760008260060182815481106108e3576108e261210a565b5b9060005260206000200160009054906101000a900473ffffffffffffffffffffffffffffffffffffffff16905060008360050160008373ffffffffffffffffffffffffffffffffffffffff1673ffffffffffffffffffffffffffffffffffffffff1681526020019081526020016000205490508173ffffffffffffffffffffffffffffffffffffffff166108fc829081150290604051600060405180830381858888f1935050505015801561099c573d6000803e3d6000fd5b50505080806001019150506108bc565b50508080600101915050610871565b508060010160009054906101000a900473ffffffffffffffffffffffffffffffffffffffff1673ffffffffffffffffffffffffffffffffffffffff166108fc82600301549081150290604051600060405180830381858888f19350505050158015610a2a573d6000803e3d6000fd5b5060008160040160006101000a81548160ff021916908315150217905550817fbf7aeff89cf7a4c3d0145879e39aa6a19e8e64ed585090ef86bf31f4d2ae57bf60405160405180910390a25050565b34600260003373ffffffffffffffffffffffffffffffffffffffff1673ffffffffffffffffffffffffffffffffffffffff1681526020019081526020016000206000828254610ac89190612040565b925050819055503373ffffffffffffffffffffffffffffffffffffffff166108fc349081150290604051600060405180830381858888f19350505050158015610b15573d6000803e3d6000fd5b503373ffffffffffffffffffffffffffffffffffffffff167f068084e4fd39d69bcbf609dffcee86bf3143fb2c521113085f333cd9704ccc4e34604051610b5c9190611674565b60405180910390a2565b60016020528060005260406000206000915090508060000154908060010160009054906101000a900473ffffffffffffffffffffffffffffffffffffffff1690806002018054610bb590611bbf565b80601f0160208091040260200160405190810160405280929190818152602001828054610be190611bbf565b8015610c2e5780601f10610c0357610100808354040283529160200191610c2e565b820191906000526020600020905b815481529060010190602001808311610c1157829003601f168201915b5050505050908060030154908060040160009054906101000a900460ff16908060070154908060080160009054906101000a900473ffffffffffffffffffffffffffffffffffffffff16905087565b60008060006001600085815260200190815260200160002090508060080160009054906101000a900473ffffffffffffffffffffffffffffffffffffffff1673ffffffffffffffffffffffffffffffffffffffff1663853a1b906040518163ffffffff1660e01b81526004016040805180830381865afa158015610d05573d6000803e3d6000fd5b505050506040513d601f19601f82011682018060405250810190610d299190612191565b9250925050915091565b60006001600083815260200190815260200160002090508060080160009054906101000a900473ffffffffffffffffffffffffffffffffffffffff1673ffffffffffffffffffffffffffffffffffffffff16634bb278f36040518163ffffffff1660e01b8152600401600060405180830381600087803b158015610db657600080fd5b505af1158015610dca573d6000803e3d6000fd5b505050505050565b60006001600083815260200190815260200160002090506000816003015490506000805b8360060180549050811015610e66576000846005016000866006018481548110610e2357610e2261210a565b5b906000526020600020015481526020019081526020016000209050610e4b81600301546110d1565b83610e569190612040565b9250508080600101915050610df6565b5060005b8360060180549050811015610f62576000846005016000866006018481548110610e9757610e9661210a565b5b90600052602060002001548152602001908152602001600020905060008385610ec384600301546110d1565b610ecd91906121d1565b610ed79190612242565b90508160010160009054906101000a900473ffffffffffffffffffffffffffffffffffffffff1673ffffffffffffffffffffffffffffffffffffffff166108fc828460030154610f279190612040565b9081150290604051600060405180830381858888f19350505050158015610f52573d6000803e3d6000fd5b5050508080600101915050610e6a565b5060008360040160006101000a81548160ff021916908315150217905550837f8eecd6f35243e1875b7143b093766263953bc97e6e92213e4ae934c67e1fe0de60405160405180910390a250505050565b60006001600085815260200190815260200160002090508282826002019182610fdd929190611d92565b5050505050565b6000610ff382600001516111ca565b9050919050565b6000611005826111de565b6110165761101360006111eb565b91505b60008290506000611026826111ff565b90506000608073ffffffffffffffffffffffffffffffffffffffff166373cc01546003846040518363ffffffff1660e01b81526004016110679291906122c8565b602060405180830381865afa158015611084573d6000803e3d6000fd5b505050506040513d601f19601f820116820180604052508101906110a8919061230d565b90506110b38161125c565b9350505050919050565b60006110ca826000611266565b9050919050565b60008082036110e357600090506111c5565b600060016110f084611308565b901c6001901b9050600181848161110a57611109612213565b5b048201901c9050600181848161112357611122612213565b5b048201901c9050600181848161113c5761113b612213565b5b048201901c9050600181848161115557611154612213565b5b048201901c9050600181848161116e5761116d612213565b5b048201901c9050600181848161118757611186612213565b5b048201901c905060018184816111a05761119f612213565b5b048201901c90506111c1818285816111bb576111ba612213565b5b046113e9565b9150505b919050565b60006111d7826003611402565b9050919050565b6000808214159050919050565b60006111f8826003611266565b9050919050565b6060602067ffffffffffffffff81111561121c5761121b611705565b5b6040519080825280601f01601f19166020018201604052801561124e5781602001600182028036833780820191505090505b509050816020820152919050565b6000819050919050565b60006060608073ffffffffffffffffffffffffffffffffffffffff166319e1c5c4611290866111ff565b856040518363ffffffff1660e01b81526004016112ae92919061233a565b600060405180830381865afa1580156112cb573d6000803e3d6000fd5b505050506040513d6000823e3d601f19601f820116820180604052508101906112f491906123da565b90506112ff8161149c565b91505092915050565b600080600090506000608084901c111561132a57608083901c92506080810190505b6000604084901c111561134557604083901c92506040810190505b6000602084901c111561136057602083901c92506020810190505b6000601084901c111561137b57601083901c92506010810190505b6000600884901c111561139657600883901c92506008810190505b6000600484901c11156113b157600483901c92506004810190505b6000600284901c11156113cc57600283901c92506002810190505b6000600184901c11156113e0576001810190505b80915050919050565b60008183106113f857816113fa565b825b905092915050565b60006060608073ffffffffffffffffffffffffffffffffffffffff16635fa55ca784866040518363ffffffff1660e01b81526004016114429291906122c8565b600060405180830381865afa15801561145f573d6000803e3d6000fd5b505050506040513d6000823e3d601f19601f8201168201806040525081019061148891906123da565b90506114938161149c565b91505092915050565b600060208201519050919050565b6138688061242483390190565b6000604051905090565b600080fd5b600080fd5b6000819050919050565b6114de816114cb565b81146114e957600080fd5b50565b6000813590506114fb816114d5565b92915050565b600080fd5b600080fd5b600080fd5b60008083601f84011261152657611525611501565b5b8235905067ffffffffffffffff81111561154357611542611506565b5b60208301915083600182028301111561155f5761155e61150b565b5b9250929050565b600080600080606085870312156115805761157f6114c1565b5b600061158e878288016114ec565b945050602085013567ffffffffffffffff8111156115af576115ae6114c6565b5b6115bb87828801611510565b935093505060406115ce878288016114ec565b91505092959194509250565b600073ffffffffffffffffffffffffffffffffffffffff82169050919050565b6000611605826115da565b9050919050565b611615816115fa565b811461162057600080fd5b50565b6000813590506116328161160c565b92915050565b60006020828403121561164e5761164d6114c1565b5b600061165c84828501611623565b91505092915050565b61166e816114cb565b82525050565b60006020820190506116896000830184611665565b92915050565b6000806000604084860312156116a8576116a76114c1565b5b60006116b6868287016114ec565b935050602084013567ffffffffffffffff8111156116d7576116d66114c6565b5b6116e386828701611510565b92509250509250925092565b600080fd5b6000601f19601f8301169050919050565b7f4e487b7100000000000000000000000000000000000000000000000000000000600052604160045260246000fd5b61173d826116f4565b810181811067ffffffffffffffff8211171561175c5761175b611705565b5b80604052505050565b600061176f6114b7565b905061177b8282611734565b919050565b600080fd5b600080fd5b600067ffffffffffffffff8211156117a5576117a4611705565b5b6117ae826116f4565b9050602081019050919050565b82818337600083830152505050565b60006117dd6117d88461178a565b611765565b9050828152602081018484840111156117f9576117f8611785565b5b6118048482856117bb565b509392505050565b600082601f83011261182157611820611501565b5b81356118318482602086016117ca565b91505092915050565b6000602082840312156118505761184f6116ef565b5b61185a6020611765565b9050600082013567ffffffffffffffff81111561187a57611879611780565b5b6118868482850161180c565b60008301525092915050565b6000806000606084860312156118ab576118aa6114c1565b5b60006118b9868287016114ec565b93505060206118ca868287016114ec565b925050604084013567ffffffffffffffff8111156118eb576118ea6114c6565b5b6118f78682870161183a565b9150509250925092565b600060208284031215611917576119166114c1565b5b6000611925848285016114ec565b91505092915050565b611937816115fa565b82525050565b600081519050919050565b600082825260208201905092915050565b60005b8381101561197757808201518184015260208101905061195c565b60008484015250505050565b600061198e8261193d565b6119988185611948565b93506119a8818560208601611959565b6119b1816116f4565b840191505092915050565b60008115159050919050565b6119d1816119bc565b82525050565b6000819050919050565b60006119fc6119f76119f2846115da565b6119d7565b6115da565b9050919050565b6000611a0e826119e1565b9050919050565b6000611a2082611a03565b9050919050565b611a3081611a15565b82525050565b600060e082019050611a4b600083018a611665565b611a58602083018961192e565b8181036040830152611a6a8188611983565b9050611a796060830187611665565b611a8660808301866119c8565b611a9360a0830185611665565b611aa060c0830184611a27565b98975050505050505050565b600060ff82169050919050565b611ac281611aac565b82525050565b600061ffff82169050919050565b611adf81611ac8565b82525050565b6000604082019050611afa6000830185611ab9565b611b076020830184611ad6565b9392505050565b7f4e487b7100000000000000000000000000000000000000000000000000000000600052601160045260246000fd5b6000611b48826114cb565b91507fffffffffffffffffffffffffffffffffffffffffffffffffffffffffffffffff8203611b7a57611b79611b0e565b5b600182019050919050565b600082905092915050565b7f4e487b7100000000000000000000000000000000000000000000000000000000600052602260045260246000fd5b60006002820490506001821680611bd757607f821691505b602082108103611bea57611be9611b90565b5b50919050565b60008190508160005260206000209050919050565b60006020601f8301049050919050565b600082821b905092915050565b600060088302611c527fffffffffffffffffffffffffffffffffffffffffffffffffffffffffffffffff82611c15565b611c5c8683611c15565b95508019841693508086168417925050509392505050565b6000611c8f611c8a611c85846114cb565b6119d7565b6114cb565b9050919050565b6000819050919050565b611ca983611c74565b611cbd611cb582611c96565b848454611c22565b825550505050565b600090565b611cd2611cc5565b611cdd818484611ca0565b505050565b5b81811015611d0157611cf6600082611cca565b600181019050611ce3565b5050565b601f821115611d4657611d1781611bf0565b611d2084611c05565b81016020851015611d2f578190505b611d43611d3b85611c05565b830182611ce2565b50505b505050565b600082821c905092915050565b6000611d6960001984600802611d4b565b1980831691505092915050565b6000611d828383611d58565b9150826002028217905092915050565b611d9c8383611b85565b67ffffffffffffffff811115611db557611db4611705565b5b611dbf8254611bbf565b611dca828285611d05565b6000601f831160018114611df95760008415611de7578287013590505b611df18582611d76565b865550611e59565b601f198416611e0786611bf0565b60005b82811015611e2f57848901358255600182019150602085019450602081019050611e0a565b86831015611e4c5784890135611e48601f891682611d58565b8355505b6001600288020188555050505b50505050505050565b6000611e6e8385611948565b9350611e7b8385846117bb565b611e84836116f4565b840190509392505050565b600081519050919050565b600082825260208201905092915050565b6000819050602082019050919050565b600082825260208201905092915050565b6000611ed78261193d565b611ee18185611ebb565b9350611ef1818560208601611959565b611efa816116f4565b840191505092915050565b6000611f118383611ecc565b905092915050565b6000602082019050919050565b6000611f3182611e8f565b611f3b8185611e9a565b935083602082028501611f4d85611eab565b8060005b85811015611f895784840389528151611f6a8582611f05565b9450611f7583611f19565b925060208a01995050600181019050611f51565b50829750879550505050505092915050565b60006060820190508181036000830152611fb6818688611e62565b90508181036020830152611fca8185611f26565b9050611fd96040830184611665565b95945050505050565b6000819050919050565b611ffd611ff8826114cb565b611fe2565b82525050565b600061200f8284611fec565b60208201915081905092915050565b600060208201905081810360008301526120388184611983565b905092915050565b600061204b826114cb565b9150612056836114cb565b925082820190508082111561206e5761206d611b0e565b5b92915050565b61207d81611c74565b82525050565b61208c81611c74565b82525050565b60006040820190506120a76000830185612074565b6120b46020830184612083565b9392505050565b60006120c6826114cb565b91506120d1836114cb565b92508282039050818111156120e9576120e8611b0e565b5b92915050565b60006020820190506121046000830184612083565b92915050565b7f4e487b7100000000000000000000000000000000000000000000000000000000600052603260045260246000fd5b61214281611aac565b811461214d57600080fd5b50565b60008151905061215f81612139565b92915050565b61216e81611ac8565b811461217957600080fd5b50565b60008151905061218b81612165565b92915050565b600080604083850312156121a8576121a76114c1565b5b60006121b685828601612150565b92505060206121c78582860161217c565b9150509250929050565b60006121dc826114cb565b91506121e7836114cb565b92508282026121f5816114cb565b9150828204841483151761220c5761220b611b0e565b5b5092915050565b7f4e487b7100000000000000000000000000000000000000000000000000000000600052601260045260246000fd5b600061224d826114cb565b9150612258836114cb565b92508261226857612267612213565b5b828204905092915050565b600081519050919050565b600082825260208201905092915050565b600061229a82612273565b6122a4818561227e565b93506122b4818560208601611959565b6122bd816116f4565b840191505092915050565b60006040820190506122dd6000830185611ab9565b81810360208301526122ef818461228f565b90509392505050565b600081519050612307816114d5565b92915050565b600060208284031215612323576123226114c1565b5b6000612331848285016122f8565b91505092915050565b60006040820190508181036000830152612354818561228f565b90506123636020830184611ab9565b9392505050565b600061237d6123788461178a565b611765565b90508281526020810184848401111561239957612398611785565b5b6123a4848285611959565b509392505050565b600082601f8301126123c1576123c0611501565b5b81516123d184826020860161236a565b91505092915050565b6000602082840312156123f0576123ef6114c1565b5b600082015167ffffffffffffffff81111561240e5761240d6114c6565b5b61241a848285016123ac565b9150509291505056fe61016060405261001560006102be60201b60201c565b60025561002860016102be60201b60201c565b60035561003b60106102d860201b60201c565b600455604051806080016040528061005960006102f260201b60201c565b815260200161006e60016102f260201b60201c565b815260200161008360026102f260201b60201c565b815260200161009860036102f260201b60201c565b81525060059060046100ab929190610542565b503480156100b857600080fd5b5060405161386838038061386883398181016040528101906100da919061090a565b6040518060400160405280601181526020017f4668656e6978205065726d697373696f6e0000000000000000000000000000008152506040518060400160405280600381526020017f312e30000000000000000000000000000000000000000000000000000000000081525061015a60008361030c60201b90919060201c565b610120818152505061017660018261030c60201b90919060201c565b6101408181525050818051906020012060e08181525050808051906020012061010081815250504660a081815250506101b361035c60201b60201c565b608081815250503073ffffffffffffffffffffffffffffffffffffffff1660c08173ffffffffffffffffffffffffffffffffffffffff16815250505050600460ff16600a80549050111561023c576040517f08c379a0000000000000000000000000000000000000000000000000000000008152600401610233906109f2565b60405180910390fd5b33601460006101000a81548173ffffffffffffffffffffffffffffffffffffffff021916908373ffffffffffffffffffffffffffffffffffffffff160217905550826009908161028c9190610c29565b5081600a90805190602001906102a3929190610582565b5080426102b09190610d2a565b600b8190555050505061108c565b60006102d18260016103b760201b60201c565b9050919050565b60006102eb8260026103b760201b60201c565b9050919050565b60006103058260006103b760201b60201c565b9050919050565b600060208351101561032e576103278361046560201b60201c565b9050610356565b8261033e836104cd60201b60201c565b600001908161034d9190610c29565b5060ff60001b90505b92915050565b60007f8b73c3c69bb8fe3d512ecc4cf759cc79239f7b179b0ffacaa9a75d522b39400f60e05161010051463060405160200161039c959493929190610dc7565b60405160208183030381529060405280519060200120905090565b60006060608073ffffffffffffffffffffffffffffffffffffffff166319e1c5c46103e7866104d760201b60201c565b856040518363ffffffff1660e01b8152600401610405929190610e8b565b600060405180830381865afa158015610422573d6000803e3d6000fd5b505050506040513d6000823e3d601f19601f8201168201806040525081019061044b9190610f5c565b905061045c8161053460201b60201c565b91505092915050565b600080829050601f815111156104b257826040517f305a27a90000000000000000000000000000000000000000000000000000000081526004016104a99190610fde565b60405180910390fd5b8051816104be90611025565b60001c1760001b915050919050565b6000819050919050565b6060602067ffffffffffffffff8111156104f4576104f36106a8565b5b6040519080825280601f01601f1916602001820160405280156105265781602001600182028036833780820191505090505b509050816020820152919050565b600060208201519050919050565b8260048101928215610571579160200282015b82811115610570578251825591602001919060010190610555565b5b50905061057e91906105db565b5090565b8280548282559060005260206000209081019282156105ca579160200282015b828111156105c95782518290816105b99190610c29565b50916020019190600101906105a2565b5b5090506105d791906105f8565b5090565b5b808211156105f45760008160009055506001016105dc565b5090565b5b80821115610618576000818161060f919061061c565b506001016105f9565b5090565b50805461062890610a4c565b6000825580601f1061063a5750610659565b601f016020900490600052602060002090810190610658919061065c565b5b50565b5b8082111561067557600081600090555060010161065d565b5090565b6000604051905090565b600080fd5b600080fd5b600080fd5b600080fd5b6000601f19601f8301169050919050565b7f4e487b7100000000000000000000000000000000000000000000000000000000600052604160045260246000fd5b6106e082610697565b810181811067ffffffffffffffff821117156106ff576106fe6106a8565b5b80604052505050565b6000610712610679565b905061071e82826106d7565b919050565b600067ffffffffffffffff82111561073e5761073d6106a8565b5b61074782610697565b9050602081019050919050565b60005b83811015610772578082015181840152602081019050610757565b60008484015250505050565b600061079161078c84610723565b610708565b9050828152602081018484840111156107ad576107ac610692565b5b6107b8848285610754565b509392505050565b600082601f8301126107d5576107d461068d565b5b81516107e584826020860161077e565b91505092915050565b600067ffffffffffffffff821115610809576108086106a8565b5b602082029050602081019050919050565b600080fd5b600061083261082d846107ee565b610708565b905080838252602082019050602084028301858111156108555761085461081a565b5b835b8181101561089c57805167ffffffffffffffff81111561087a5761087961068d565b5b80860161088789826107c0565b85526020850194505050602081019050610857565b5050509392505050565b600082601f8301126108bb576108ba61068d565b5b81516108cb84826020860161081f565b91505092915050565b6000819050919050565b6108e7816108d4565b81146108f257600080fd5b50565b600081519050610904816108de565b92915050565b60008060006060848603121561092357610922610683565b5b600084015167ffffffffffffffff81111561094157610940610688565b5b61094d868287016107c0565b935050602084015167ffffffffffffffff81111561096e5761096d610688565b5b61097a868287016108a6565b925050604061098b868287016108f5565b9150509250925092565b600082825260208201905092915050565b7f746f6f206d616e79206f7074696f6e7321000000000000000000000000000000600082015250565b60006109dc601183610995565b91506109e7826109a6565b602082019050919050565b60006020820190508181036000830152610a0b816109cf565b9050919050565b600081519050919050565b7f4e487b7100000000000000000000000000000000000000000000000000000000600052602260045260246000fd5b60006002820490506001821680610a6457607f821691505b602082108103610a7757610a76610a1d565b5b50919050565b60008190508160005260206000209050919050565b60006020601f8301049050919050565b600082821b905092915050565b600060088302610adf7fffffffffffffffffffffffffffffffffffffffffffffffffffffffffffffffff82610aa2565b610ae98683610aa2565b95508019841693508086168417925050509392505050565b6000819050919050565b6000610b26610b21610b1c846108d4565b610b01565b6108d4565b9050919050565b6000819050919050565b610b4083610b0b565b610b54610b4c82610b2d565b848454610aaf565b825550505050565b600090565b610b69610b5c565b610b74818484610b37565b505050565b5b81811015610b9857610b8d600082610b61565b600181019050610b7a565b5050565b601f821115610bdd57610bae81610a7d565b610bb784610a92565b81016020851015610bc6578190505b610bda610bd285610a92565b830182610b79565b50505b505050565b600082821c905092915050565b6000610c0060001984600802610be2565b1980831691505092915050565b6000610c198383610bef565b9150826002028217905092915050565b610c3282610a12565b67ffffffffffffffff811115610c4b57610c4a6106a8565b5b610c558254610a4c565b610c60828285610b9c565b600060209050601f831160018114610c935760008415610c81578287015190505b610c8b8582610c0d565b865550610cf3565b601f198416610ca186610a7d565b60005b82811015610cc957848901518255600182019150602085019450602081019050610ca4565b86831015610ce65784890151610ce2601f891682610bef565b8355505b6001600288020188555050505b505050505050565b7f4e487b7100000000000000000000000000000000000000000000000000000000600052601160045260246000fd5b6000610d35826108d4565b9150610d40836108d4565b9250828201905080821115610d5857610d57610cfb565b5b92915050565b6000819050919050565b610d7181610d5e565b82525050565b610d80816108d4565b82525050565b600073ffffffffffffffffffffffffffffffffffffffff82169050919050565b6000610db182610d86565b9050919050565b610dc181610da6565b82525050565b600060a082019050610ddc6000830188610d68565b610de96020830187610d68565b610df66040830186610d68565b610e036060830185610d77565b610e106080830184610db8565b9695505050505050565b600081519050919050565b600082825260208201905092915050565b6000610e4182610e1a565b610e4b8185610e25565b9350610e5b818560208601610754565b610e6481610697565b840191505092915050565b600060ff82169050919050565b610e8581610e6f565b82525050565b60006040820190508181036000830152610ea58185610e36565b9050610eb46020830184610e7c565b9392505050565b600067ffffffffffffffff821115610ed657610ed56106a8565b5b610edf82610697565b9050602081019050919050565b6000610eff610efa84610ebb565b610708565b905082815260208101848484011115610f1b57610f1a610692565b5b610f26848285610754565b509392505050565b600082601f830112610f4357610f4261068d565b5b8151610f53848260208601610eec565b91505092915050565b600060208284031215610f7257610f71610683565b5b600082015167ffffffffffffffff811115610f9057610f8f610688565b5b610f9c84828501610f2e565b91505092915050565b6000610fb082610a12565b610fba8185610995565b9350610fca818560208601610754565b610fd381610697565b840191505092915050565b60006020820190508181036000830152610ff88184610fa5565b905092915050565b6000819050602082019050919050565b600061101c8251610d5e565b80915050919050565b600061103082610e1a565b8261103a84611000565b905061104581611010565b92506020821015611085576110807fffffffffffffffffffffffffffffffffffffffffffffffffffffffffffffffff83602003600802610aa2565b831692505b5050919050565b60805160a05160c05160e0516101005161012051610140516127916110d760003960006109ab01526000610970015260005050600050506000505060005050600050506127916000f3fe608060405234801561001057600080fd5b506004361061009e5760003560e01c8063853a1b9011610066578063853a1b901461014f5780638da5cb5b1461016e5780639e6cb42b1461018c578063b384abef146101aa578063edc550dc146101c65761009e565b8063409e2205146100a35780634bb278f3146100d35780635ad9fcca146100dd578063753ec1031461010d57806384b0196e1461012b575b600080fd5b6100bd60048036038101906100b891906116f1565b6101e2565b6040516100ca91906117ae565b60405180910390f35b6100db61028e565b005b6100f760048036038101906100f291906119b1565b6103a8565b60405161010491906117ae565b60405180910390f35b610115610485565b60405161012291906117ae565b60405180910390f35b610133610513565b6040516101469796959493929190611b52565b60405180910390f35b6101576105bd565b604051610165929190611c0f565b60405180910390f35b6101766105de565b6040516101839190611c38565b60405180910390f35b610194610604565b6040516101a19190611c53565b60405180910390f35b6101c460048036038101906101bf9190611cc6565b61060a565b005b6101e060048036038101906101db9190611da7565b610789565b005b600a81815481106101f257600080fd5b90600052602060002001600091509050805461020d90611e1f565b80601f016020809104026020016040519081016040528092919081815260200182805461023990611e1f565b80156102865780601f1061025b57610100808354040283529160200191610286565b820191906000526020600020905b81548152906001019060200180831161026957829003601f168201915b505050505081565b42600b54106102d2576040517f08c379a00000000000000000000000000000000000000000000000000000000081526004016102c990611e9c565b60405180910390fd5b60056000600481106102e7576102e6611ebc565b5b0154601081905550600c60006004811061030457610303611ebc565b5b01546011819055506000600190505b600a805490508160ff1610156103a5576000610349601154600c8460ff166004811061034257610341611ebc565b5b0154610819565b90506103846103636011548361089290919063ffffffff16565b60058460ff166004811061037a57610379611ebc565b5b01546010546108a6565b6010819055508060118190555050808061039d90611f1a565b915050610313565b50565b60606103f2601260003373ffffffffffffffffffffffffffffffffffffffff1673ffffffffffffffffffffffffffffffffffffffff16815260200190815260200160002054610924565b610431576040517f08c379a000000000000000000000000000000000000000000000000000000000815260040161042890611f8f565b60405180910390fd5b61047e601260003373ffffffffffffffffffffffffffffffffffffffff1673ffffffffffffffffffffffffffffffffffffffff168152602001908152602001600020548360000151610931565b9050919050565b6009805461049290611e1f565b80601f01602080910402602001604051908101604052809291908181526020018280546104be90611e1f565b801561050b5780601f106104e05761010080835404028352916020019161050b565b820191906000526020600020905b8154815290600101906020018083116104ee57829003601f168201915b505050505081565b600060608060008060006060610527610967565b61052f6109a2565b46306000801b600067ffffffffffffffff8111156105505761054f6117d5565b5b60405190808252806020026020018201604052801561057e5781602001602082028036833780820191505090505b507f0f00000000000000000000000000000000000000000000000000000000000000959493929190965096509650965096509650965090919293949596565b6000806105cb6010546109dd565b6105d6601154610aa0565b915091509091565b601460009054906101000a900473ffffffffffffffffffffffffffffffffffffffff1681565b600b5481565b600b54421061064e576040517f08c379a000000000000000000000000000000000000000000000000000000000815260040161064590611ffb565b60405180910390fd5b610696601260003373ffffffffffffffffffffffffffffffffffffffff1673ffffffffffffffffffffffffffffffffffffffff16815260200190815260200160002054610924565b156106d6576040517f08c379a00000000000000000000000000000000000000000000000000000000081526004016106cd90612067565b60405180910390fd5b600082905060008290506106e982610b63565b81601260003373ffffffffffffffffffffffffffffffffffffffff1673ffffffffffffffffffffffffffffffffffffffff1681526020019081526020016000208190555080601360003373ffffffffffffffffffffffffffffffffffffffff1673ffffffffffffffffffffffffffffffffffffffff168152602001908152602001600020819055506107838261077e83610bde565b610bf4565b50505050565b600460ff166001600a805490506107a09190612087565b11156107e1576040517f08c379a00000000000000000000000000000000000000000000000000000000081526004016107d890612107565b60405180910390fd5b600a8190806001815401808255809150506001900390600052602060002001600090919091909150908161081591906122d3565b5050565b600061082483610c9b565b610835576108326000610ca8565b92505b61083e82610c9b565b61084f5761084c6000610ca8565b91505b60008390506000839050600061088460018484608073ffffffffffffffffffffffffffffffffffffffff16630b80518e610cbc565b905080935050505092915050565b600061089e8383610d50565b905092915050565b60006108b184610dc9565b6108c2576108bf6000610dd6565b93505b6108cb83610924565b6108dc576108d96000610dea565b92505b6108e582610924565b6108f6576108f36000610dea565b91505b60008490506000849050600084905060006109146000858585610dfe565b9050809450505050509392505050565b6000808214159050919050565b606061093c83610924565b61094d5761094a6000610dea565b92505b600083905061095e60008285610eb6565b91505092915050565b606061099d60007f0000000000000000000000000000000000000000000000000000000000000000610f6c90919063ffffffff16565b905090565b60606109d860017f0000000000000000000000000000000000000000000000000000000000000000610f6c90919063ffffffff16565b905090565b60006109e882610924565b6109f9576109f66000610dea565b91505b60008290506000610a098261101c565b90506000608073ffffffffffffffffffffffffffffffffffffffff166373cc01546000846040518363ffffffff1660e01b8152600401610a4a9291906123fa565b602060405180830381865afa158015610a67573d6000803e3d6000fd5b505050506040513d601f19601f82011682018060405250810190610a8b919061243f565b9050610a9681611079565b9350505050919050565b6000610aab82610c9b565b610abc57610ab96000610ca8565b91505b60008290506000610acc8261101c565b90506000608073ffffffffffffffffffffffffffffffffffffffff166373cc01546001846040518363ffffffff1660e01b8152600401610b0d9291906123fa565b602060405180830381865afa158015610b2a573d6000803e3d6000fd5b505050506040513d601f19601f82011682018060405250810190610b4e919061243f565b9050610b5981611083565b9350505050919050565b6000610bcf610b916005600060048110610b8057610b7f611ebc565b5b01548461108d90919063ffffffff16565b610bca60056001600a80549050610ba8919061246c565b60048110610bb957610bb8611ebc565b5b0154856110a190919063ffffffff16565b6110b5565b9050610bda816110c9565b5050565b6000610bed600383600161117e565b9050919050565b60005b600a805490508160ff161015610c96576000610c42610c3760058460ff1660048110610c2657610c25611ebc565b5b01548661122390919063ffffffff16565b600354600254611237565b9050610c66600c8360ff1660048110610c5e57610c5d611ebc565b5b0154826112b5565b600c8360ff1660048110610c7d57610c7c611ebc565b5b0181905550508080610c8e90611f1a565b915050610bf7565b505050565b6000808214159050919050565b6000610cb58260016112c9565b9050919050565b60006060838388610ccc8961101c565b610cd58961101c565b6040518463ffffffff1660e01b8152600401610cf3939291906124a0565b600060405180830381865afa158015610d10573d6000803e3d6000fd5b505050506040513d6000823e3d601f19601f82011682018060405250810190610d399190612555565b9050610d448161136b565b91505095945050505050565b6000610d5b83610c9b565b610d6c57610d696000610ca8565b92505b610d7582610c9b565b610d8657610d836000610ca8565b91505b600083905060008390506000610dbb60018484608073ffffffffffffffffffffffffffffffffffffffff1663874b1c10610cbc565b905080935050505092915050565b6000808214159050919050565b6000610de382600d6112c9565b9050919050565b6000610df78260006112c9565b9050919050565b60006060608073ffffffffffffffffffffffffffffffffffffffff1663c2d9695287610e298861101c565b610e328861101c565b610e3b8861101c565b6040518563ffffffff1660e01b8152600401610e5a949392919061259e565b600060405180830381865afa158015610e77573d6000803e3d6000fd5b505050506040513d6000823e3d601f19601f82011682018060405250810190610ea09190612555565b9050610eab81611379565b915050949350505050565b6060608073ffffffffffffffffffffffffffffffffffffffff1663a1848ff385610edf8661101c565b85604051602001610ef09190612619565b6040516020818303038152906040526040518463ffffffff1660e01b8152600401610f1d939291906124a0565b600060405180830381865afa158015610f3a573d6000803e3d6000fd5b505050506040513d6000823e3d601f19601f82011682018060405250810190610f6391906126a4565b90509392505050565b606060ff60001b8314610f8957610f8283611387565b9050611016565b818054610f9590611e1f565b80601f0160208091040260200160405190810160405280929190818152602001828054610fc190611e1f565b801561100e5780601f10610fe35761010080835404028352916020019161100e565b820191906000526020600020905b815481529060010190602001808311610ff157829003601f168201915b505050505090505b92915050565b6060602067ffffffffffffffff811115611039576110386117d5565b5b6040519080825280601f01601f19166020018201604052801561106b5781602001600182028036833780820191505090505b509050816020820152919050565b6000819050919050565b6000819050919050565b600061109983836113fb565b905092915050565b60006110ad8383611474565b905092915050565b60006110c183836114ed565b905092915050565b6110d281610dc9565b6110e3576110e06000610dd6565b90505b600081905060006110f38261101c565b9050608073ffffffffffffffffffffffffffffffffffffffff16637d23f1db600d836040518363ffffffff1660e01b81526004016111329291906123fa565b600060405180830381865afa15801561114f573d6000803e3d6000fd5b505050506040513d6000823e3d601f19601f820116820180604052508101906111789190612555565b50505050565b60006060608073ffffffffffffffffffffffffffffffffffffffff16634a5a1117866111a98761101c565b866040518463ffffffff1660e01b81526004016111c8939291906126ed565b600060405180830381865afa1580156111e5573d6000803e3d6000fd5b505050506040513d6000823e3d601f19601f8201168201806040525081019061120e9190612555565b905061121981611379565b9150509392505050565b600061122f8383611566565b905092915050565b600061124284610dc9565b611253576112506000610dd6565b93505b61125c83610c9b565b61126d5761126a6000610ca8565b92505b61127682610c9b565b611287576112846000610ca8565b91505b60008490506000849050600084905060006112a56001858585610dfe565b9050809450505050509392505050565b60006112c183836115df565b905092915050565b60006060608073ffffffffffffffffffffffffffffffffffffffff166319e1c5c46112f38661101c565b856040518363ffffffff1660e01b815260040161131192919061272b565b600060405180830381865afa15801561132e573d6000803e3d6000fd5b505050506040513d6000823e3d601f19601f820116820180604052508101906113579190612555565b905061136281611379565b91505092915050565b600060208201519050919050565b600060208201519050919050565b6060600061139483611657565b90506000602067ffffffffffffffff8111156113b3576113b26117d5565b5b6040519080825280601f01601f1916602001820160405280156113e55781602001600182028036833780820191505090505b5090508181528360208201528092505050919050565b600061140683610924565b611417576114146000610dea565b92505b61142082610924565b6114315761142e6000610dea565b91505b60008390506000839050600061146660008484608073ffffffffffffffffffffffffffffffffffffffff1663650de1cf610cbc565b905080935050505092915050565b600061147f83610924565b6114905761148d6000610dea565b92505b61149982610924565b6114aa576114a76000610dea565b91505b6000839050600083905060006114df60008484608073ffffffffffffffffffffffffffffffffffffffff1663eb274b77610cbc565b905080935050505092915050565b60006114f883610dc9565b611509576115066000610dd6565b92505b61151282610dc9565b611523576115206000610dd6565b91505b600083905060008390506000611558600d8484608073ffffffffffffffffffffffffffffffffffffffff1663ae104cfd610cbc565b905080935050505092915050565b600061157183610924565b6115825761157f6000610dea565b92505b61158b82610924565b61159c576115996000610dea565b91505b6000839050600083905060006115d160008484608073ffffffffffffffffffffffffffffffffffffffff166392348b34610cbc565b905080935050505092915050565b60006115ea83610c9b565b6115fb576115f86000610ca8565b92505b61160482610c9b565b611615576116126000610ca8565b91505b60008390506000839050600061164960018484608073ffffffffffffffffffffffffffffffffffffffff16622df619610cbc565b905080935050505092915050565b60008060ff8360001c169050601f81111561169e576040517fb3512b0c00000000000000000000000000000000000000000000000000000000815260040160405180910390fd5b80915050919050565b6000604051905090565b600080fd5b600080fd5b6000819050919050565b6116ce816116bb565b81146116d957600080fd5b50565b6000813590506116eb816116c5565b92915050565b600060208284031215611707576117066116b1565b5b6000611715848285016116dc565b91505092915050565b600081519050919050565b600082825260208201905092915050565b60005b8381101561175857808201518184015260208101905061173d565b60008484015250505050565b6000601f19601f8301169050919050565b60006117808261171e565b61178a8185611729565b935061179a81856020860161173a565b6117a381611764565b840191505092915050565b600060208201905081810360008301526117c88184611775565b905092915050565b600080fd5b7f4e487b7100000000000000000000000000000000000000000000000000000000600052604160045260246000fd5b61180d82611764565b810181811067ffffffffffffffff8211171561182c5761182b6117d5565b5b80604052505050565b600061183f6116a7565b905061184b8282611804565b919050565b600080fd5b6000819050919050565b61186881611855565b811461187357600080fd5b50565b6000813590506118858161185f565b92915050565b600080fd5b600080fd5b600067ffffffffffffffff8211156118b0576118af6117d5565b5b6118b982611764565b9050602081019050919050565b82818337600083830152505050565b60006118e86118e384611895565b611835565b90508281526020810184848401111561190457611903611890565b5b61190f8482856118c6565b509392505050565b600082601f83011261192c5761192b61188b565b5b813561193c8482602086016118d5565b91505092915050565b60006040828403121561195b5761195a6117d0565b5b6119656040611835565b9050600061197584828501611876565b600083015250602082013567ffffffffffffffff81111561199957611998611850565b5b6119a584828501611917565b60208301525092915050565b6000602082840312156119c7576119c66116b1565b5b600082013567ffffffffffffffff8111156119e5576119e46116b6565b5b6119f184828501611945565b91505092915050565b60007fff0000000000000000000000000000000000000000000000000000000000000082169050919050565b611a2f816119fa565b82525050565b611a3e816116bb565b82525050565b600073ffffffffffffffffffffffffffffffffffffffff82169050919050565b6000611a6f82611a44565b9050919050565b611a7f81611a64565b82525050565b611a8e81611855565b82525050565b600081519050919050565b600082825260208201905092915050565b6000819050602082019050919050565b611ac9816116bb565b82525050565b6000611adb8383611ac0565b60208301905092915050565b6000602082019050919050565b6000611aff82611a94565b611b098185611a9f565b9350611b1483611ab0565b8060005b83811015611b45578151611b2c8882611acf565b9750611b3783611ae7565b925050600181019050611b18565b5085935050505092915050565b600060e082019050611b67600083018a611a26565b8181036020830152611b798189611775565b90508181036040830152611b8d8188611775565b9050611b9c6060830187611a35565b611ba96080830186611a76565b611bb660a0830185611a85565b81810360c0830152611bc88184611af4565b905098975050505050505050565b600060ff82169050919050565b611bec81611bd6565b82525050565b600061ffff82169050919050565b611c0981611bf2565b82525050565b6000604082019050611c246000830185611be3565b611c316020830184611c00565b9392505050565b6000602082019050611c4d6000830184611a76565b92915050565b6000602082019050611c686000830184611a35565b92915050565b611c77816116bb565b8114611c8257600080fd5b50565b600081359050611c9481611c6e565b92915050565b611ca3816116bb565b8114611cae57600080fd5b50565b600081359050611cc081611c9a565b92915050565b60008060408385031215611cdd57611cdc6116b1565b5b6000611ceb85828601611c85565b9250506020611cfc85828601611cb1565b9150509250929050565b600067ffffffffffffffff821115611d2157611d206117d5565b5b611d2a82611764565b9050602081019050919050565b6000611d4a611d4584611d06565b611835565b905082815260208101848484011115611d6657611d65611890565b5b611d718482856118c6565b509392505050565b600082601f830112611d8e57611d8d61188b565b5b8135611d9e848260208601611d37565b91505092915050565b600060208284031215611dbd57611dbc6116b1565b5b600082013567ffffffffffffffff811115611ddb57611dda6116b6565b5b611de784828501611d79565b91505092915050565b7f4e487b7100000000000000000000000000000000000000000000000000000000600052602260045260246000fd5b60006002820490506001821680611e3757607f821691505b602082108103611e4a57611e49611df0565b5b50919050565b7f766f74696e67206973207374696c6c20696e2070726f67726573732100000000600082015250565b6000611e86601c83611729565b9150611e9182611e50565b602082019050919050565b60006020820190508181036000830152611eb581611e79565b9050919050565b7f4e487b7100000000000000000000000000000000000000000000000000000000600052603260045260246000fd5b7f4e487b7100000000000000000000000000000000000000000000000000000000600052601160045260246000fd5b6000611f2582611bd6565b915060ff8203611f3857611f37611eeb565b5b600182019050919050565b7f6e6f20766f746520666f756e6421000000000000000000000000000000000000600082015250565b6000611f79600e83611729565b9150611f8482611f43565b602082019050919050565b60006020820190508181036000830152611fa881611f6c565b9050919050565b7f766f74696e67206973206f766572210000000000000000000000000000000000600082015250565b6000611fe5600f83611729565b9150611ff082611faf565b602082019050919050565b6000602082019050818103600083015261201481611fd8565b9050919050565b7f616c726561647920766f74656421000000000000000000000000000000000000600082015250565b6000612051600e83611729565b915061205c8261201b565b602082019050919050565b6000602082019050818103600083015261208081612044565b9050919050565b6000612092826116bb565b915061209d836116bb565b92508282019050808211156120b5576120b4611eeb565b5b92915050565b7f746f6f206d616e79206f7074696f6e7321000000000000000000000000000000600082015250565b60006120f1601183611729565b91506120fc826120bb565b602082019050919050565b60006020820190508181036000830152612120816120e4565b9050919050565b60008190508160005260206000209050919050565b60006020601f8301049050919050565b600082821b905092915050565b6000600883026121897fffffffffffffffffffffffffffffffffffffffffffffffffffffffffffffffff8261214c565b612193868361214c565b95508019841693508086168417925050509392505050565b6000819050919050565b60006121d06121cb6121c6846116bb565b6121ab565b6116bb565b9050919050565b6000819050919050565b6121ea836121b5565b6121fe6121f6826121d7565b848454612159565b825550505050565b600090565b612213612206565b61221e8184846121e1565b505050565b5b818110156122425761223760008261220b565b600181019050612224565b5050565b601f8211156122875761225881612127565b6122618461213c565b81016020851015612270578190505b61228461227c8561213c565b830182612223565b50505b505050565b600082821c905092915050565b60006122aa6000198460080261228c565b1980831691505092915050565b60006122c38383612299565b9150826002028217905092915050565b6122dc8261171e565b67ffffffffffffffff8111156122f5576122f46117d5565b5b6122ff8254611e1f565b61230a828285612246565b600060209050601f83116001811461233d576000841561232b578287015190505b61233585826122b7565b86555061239d565b601f19841661234b86612127565b60005b828110156123735784890151825560018201915060208501945060208101905061234e565b86831015612390578489015161238c601f891682612299565b8355505b6001600288020188555050505b505050505050565b600081519050919050565b600082825260208201905092915050565b60006123cc826123a5565b6123d681856123b0565b93506123e681856020860161173a565b6123ef81611764565b840191505092915050565b600060408201905061240f6000830185611be3565b818103602083015261242181846123c1565b90509392505050565b600081519050612439816116c5565b92915050565b600060208284031215612455576124546116b1565b5b60006124638482850161242a565b91505092915050565b6000612477826116bb565b9150612482836116bb565b925082820390508181111561249a57612499611eeb565b5b92915050565b60006060820190506124b56000830186611be3565b81810360208301526124c781856123c1565b905081810360408301526124db81846123c1565b9050949350505050565b60006124f86124f384611895565b611835565b90508281526020810184848401111561251457612513611890565b5b61251f84828561173a565b509392505050565b600082601f83011261253c5761253b61188b565b5b815161254c8482602086016124e5565b91505092915050565b60006020828403121561256b5761256a6116b1565b5b600082015167ffffffffffffffff811115612589576125886116b6565b5b61259584828501612527565b91505092915050565b60006080820190506125b36000830187611be3565b81810360208301526125c581866123c1565b905081810360408301526125d981856123c1565b905081810360608301526125ed81846123c1565b905095945050505050565b6000819050919050565b61261361260e82611855565b6125f8565b82525050565b60006126258284612602565b60208201915081905092915050565b600061264761264284611d06565b611835565b90508281526020810184848401111561266357612662611890565b5b61266e84828561173a565b509392505050565b600082601f83011261268b5761268a61188b565b5b815161269b848260208601612634565b91505092915050565b6000602082840312156126ba576126b96116b1565b5b600082015167ffffffffffffffff8111156126d8576126d76116b6565b5b6126e484828501612676565b91505092915050565b60006060820190506127026000830186611be3565b818103602083015261271481856123c1565b90506127236040830184611be3565b949350505050565b6000604082019050818103600083015261274581856123c1565b90506127546020830184611be3565b939250505056fea264697066735822122048b50cc0537f954825d439e75edc87641386d1f561e695fee43fef59d980138864736f6c63430008190033a26469706673582212204b9de5af6067954a76acc6fa917706a112a27dceaf5fa7cf0c6e5352a1cf45b164736f6c63430008190033",
    "devdoc": {
        "kind": "dev",
        "methods": {
            "applyForRound(uint256,string)": {
                "params": {
                    "metadata": "The project's metadata",
                    "roundId": "The ID of the round to apply for"
                }
            },
            "cancelRound(uint256)": {
                "params": {
                    "roundId": "The ID of the round to cancel"
                }
            },
            "distributeFunds(uint256)": {
                "params": {
                    "rId": "The ID of the round to distribute funds for"
                }
            },
            "donate(uint256,uint256,(bytes))": {
                "params": {
                    "amount": "The amount of tokens to donate",
                    "projectId": "The ID of the project",
                    "roundId": "The ID of the round"
                }
            }
        },
        "version": 1
    },
    "userdoc": {
        "kind": "user",
        "methods": {
            "applyForRound(uint256,string)": {
                "notice": "Creates a project to apply for a round"
            },
            "cancelRound(uint256)": {
                "notice": "Allows the round owner to cancel an active round and refund donations"
            },
            "distributeFunds(uint256)": {
                "notice": "Distributes funds for a completed round using quadratic funding"
            },
            "donate(uint256,uint256,(bytes))": {
                "notice": "Allows a user to donate to a specific project in a round"
            }
        },
        "version": 1
    },
    "storageLayout": {
        "storage": [
            {
                "astId": 18004,
                "contract": "contracts/OnlyGrantsProtocol.sol:OnlyGrantsProtocol",
                "label": "nextRoundId",
                "offset": 0,
                "slot": "0",
                "type": "t_uint256"
            },
            {
                "astId": 18051,
                "contract": "contracts/OnlyGrantsProtocol.sol:OnlyGrantsProtocol",
                "label": "rounds",
                "offset": 0,
                "slot": "1",
                "type": "t_mapping(t_uint256,t_struct(Round)18028_storage)"
            },
            {
                "astId": 18055,
                "contract": "contracts/OnlyGrantsProtocol.sol:OnlyGrantsProtocol",
                "label": "balances",
                "offset": 0,
                "slot": "2",
                "type": "t_mapping(t_address,t_uint256)"
            }
        ],
        "types": {
            "t_address": {
                "encoding": "inplace",
                "label": "address",
                "numberOfBytes": "20"
            },
            "t_array(t_address)dyn_storage": {
                "base": "t_address",
                "encoding": "dynamic_array",
                "label": "address[]",
                "numberOfBytes": "32"
            },
            "t_array(t_uint256)dyn_storage": {
                "base": "t_uint256",
                "encoding": "dynamic_array",
                "label": "uint256[]",
                "numberOfBytes": "32"
            },
            "t_bool": {
                "encoding": "inplace",
                "label": "bool",
                "numberOfBytes": "1"
            },
            "t_contract(Poll)19069": {
                "encoding": "inplace",
                "label": "contract Poll",
                "numberOfBytes": "20"
            },
            "t_mapping(t_address,t_uint256)": {
                "encoding": "mapping",
                "key": "t_address",
                "label": "mapping(address => uint256)",
                "numberOfBytes": "32",
                "value": "t_uint256"
            },
            "t_mapping(t_uint256,t_struct(Project)18046_storage)": {
                "encoding": "mapping",
                "key": "t_uint256",
                "label": "mapping(uint256 => struct OnlyGrantsProtocol.Project)",
                "numberOfBytes": "32",
                "value": "t_struct(Project)18046_storage"
            },
            "t_mapping(t_uint256,t_struct(Round)18028_storage)": {
                "encoding": "mapping",
                "key": "t_uint256",
                "label": "mapping(uint256 => struct OnlyGrantsProtocol.Round)",
                "numberOfBytes": "32",
                "value": "t_struct(Round)18028_storage"
            },
            "t_string_storage": {
                "encoding": "bytes",
                "label": "string",
                "numberOfBytes": "32"
            },
            "t_struct(Project)18046_storage": {
                "encoding": "inplace",
                "label": "struct OnlyGrantsProtocol.Project",
                "members": [
                    {
                        "astId": 18030,
                        "contract": "contracts/OnlyGrantsProtocol.sol:OnlyGrantsProtocol",
                        "label": "id",
                        "offset": 0,
                        "slot": "0",
                        "type": "t_uint256"
                    },
                    {
                        "astId": 18032,
                        "contract": "contracts/OnlyGrantsProtocol.sol:OnlyGrantsProtocol",
                        "label": "owner",
                        "offset": 0,
                        "slot": "1",
                        "type": "t_address"
                    },
                    {
                        "astId": 18034,
                        "contract": "contracts/OnlyGrantsProtocol.sol:OnlyGrantsProtocol",
                        "label": "metadata",
                        "offset": 0,
                        "slot": "2",
                        "type": "t_string_storage"
                    },
                    {
                        "astId": 18036,
                        "contract": "contracts/OnlyGrantsProtocol.sol:OnlyGrantsProtocol",
                        "label": "totalDonations",
                        "offset": 0,
                        "slot": "3",
                        "type": "t_uint256"
                    },
                    {
                        "astId": 18038,
                        "contract": "contracts/OnlyGrantsProtocol.sol:OnlyGrantsProtocol",
                        "label": "impactAttestationId",
                        "offset": 0,
                        "slot": "4",
                        "type": "t_uint64"
                    },
                    {
                        "astId": 18042,
                        "contract": "contracts/OnlyGrantsProtocol.sol:OnlyGrantsProtocol",
                        "label": "donations",
                        "offset": 0,
                        "slot": "5",
                        "type": "t_mapping(t_address,t_uint256)"
                    },
                    {
                        "astId": 18045,
                        "contract": "contracts/OnlyGrantsProtocol.sol:OnlyGrantsProtocol",
                        "label": "donors",
                        "offset": 0,
                        "slot": "6",
                        "type": "t_array(t_address)dyn_storage"
                    }
                ],
                "numberOfBytes": "224"
            },
            "t_struct(Round)18028_storage": {
                "encoding": "inplace",
                "label": "struct OnlyGrantsProtocol.Round",
                "members": [
                    {
                        "astId": 18006,
                        "contract": "contracts/OnlyGrantsProtocol.sol:OnlyGrantsProtocol",
                        "label": "id",
                        "offset": 0,
                        "slot": "0",
                        "type": "t_uint256"
                    },
                    {
                        "astId": 18008,
                        "contract": "contracts/OnlyGrantsProtocol.sol:OnlyGrantsProtocol",
                        "label": "profileOwner",
                        "offset": 0,
                        "slot": "1",
                        "type": "t_address"
                    },
                    {
                        "astId": 18010,
                        "contract": "contracts/OnlyGrantsProtocol.sol:OnlyGrantsProtocol",
                        "label": "metadata",
                        "offset": 0,
                        "slot": "2",
                        "type": "t_string_storage"
                    },
                    {
                        "astId": 18012,
                        "contract": "contracts/OnlyGrantsProtocol.sol:OnlyGrantsProtocol",
                        "label": "matchingAmount",
                        "offset": 0,
                        "slot": "3",
                        "type": "t_uint256"
                    },
                    {
                        "astId": 18014,
                        "contract": "contracts/OnlyGrantsProtocol.sol:OnlyGrantsProtocol",
                        "label": "isActive",
                        "offset": 0,
                        "slot": "4",
                        "type": "t_bool"
                    },
                    {
                        "astId": 18019,
                        "contract": "contracts/OnlyGrantsProtocol.sol:OnlyGrantsProtocol",
                        "label": "projects",
                        "offset": 0,
                        "slot": "5",
                        "type": "t_mapping(t_uint256,t_struct(Project)18046_storage)"
                    },
                    {
                        "astId": 18022,
                        "contract": "contracts/OnlyGrantsProtocol.sol:OnlyGrantsProtocol",
                        "label": "projectIds",
                        "offset": 0,
                        "slot": "6",
                        "type": "t_array(t_uint256)dyn_storage"
                    },
                    {
                        "astId": 18024,
                        "contract": "contracts/OnlyGrantsProtocol.sol:OnlyGrantsProtocol",
                        "label": "nextProjectId",
                        "offset": 0,
                        "slot": "7",
                        "type": "t_uint256"
                    },
                    {
                        "astId": 18027,
                        "contract": "contracts/OnlyGrantsProtocol.sol:OnlyGrantsProtocol",
                        "label": "poll",
                        "offset": 0,
                        "slot": "8",
                        "type": "t_contract(Poll)19069"
                    }
                ],
                "numberOfBytes": "288"
            },
            "t_uint256": {
                "encoding": "inplace",
                "label": "uint256",
                "numberOfBytes": "32"
            },
            "t_uint64": {
                "encoding": "inplace",
                "label": "uint64",
                "numberOfBytes": "8"
            }
        }
    }
}